:020000040800F2
:100000008006002081010008BB090008B90900082A
:1000100000000000000000000000000000000000E0
:10002000000000000000000000000000BF09000800
:100030000000000000000000BD090008C109000820
:100040009301000893010008930100089301000840
:100050009301000893010008930100089301000830
:100060009301000893010008930100089301000820
:100070009301000893010008930100089301000810
:100080009301000893010008930100089301000800
:1000900093010008930100089301000893010008F0
:1000A00093010008930100089301000893010008E0
:1000B00093010008930100089301000893010008D0
:1000C00000F002F800F04CF812A030C808382418EC
:1000D0002D18AC4201D100F043F80FCCA246AB463C
:1000E0000CA730CF2D1B083F3F197C427F1E544484
:1000F0002D090426F441641EAC4201D300F030F80F
:100100000126334200D0FB1A3343984754465D46DC
:10011000DFE70000B0110000D0110000103A02D358
:1001200078C878C1FAD8520701D330C830C101D598
:1001300004680C6070470000704700000023002432
:1001400000250026103A01D378C1FBD8520700D30E
:1001500030C100D50B6070471FB51FBD10B510BD75
:1001600000F04DF81146FFF7F7FF00F02FFC00F00C
:1001700065F803B4FFF7F2FF03BC00F06BF8000072
:100180000748804707480047FEE7FEE7FEE7FEE72F
:10019000FEE7FEE704480549054A064B70470000A4
:1001A000C9090008C1000008800000208006002066
:1001B000800200208002002001E004C0091F042901
:1001C000FBD28B0701D50280801CC90700D00270CA
:1001D000704700290BD0C30702D00270401C491E93
:1001E000022904D3830702D50280801C891EE3E71D
:1001F0000022EEE70022DFE7704770477047754640
:1002000000F024F8AE46050069465346C008C00019
:10021000854618B020B5FFF7BDFF60BCB646002686
:100220000027C0C5C0C5C0C5C0C5C0C5C0C5C0C504
:10023000C0C5403D490849008D46704710B5044689
:10024000C046C0462046FFF794FF10BD00487047E7
:100250001800002001491820ABBEFEE7260002006E
:1002600070470000B0B5044600F00CF80546601C6D
:1002700002D021480078041900F004F8401BA04285
:10028000FAD3B0BD054800687047C0461A480078E8
:1002900002490A68101808607047C04678000020BC
:1002A00080B58548016810220A430260032000F0EF
:1002B00005F800F023F8002080BDC04670B5044664
:1002C0007D20C0000C4E317800F0E8FE01468248E7
:1002D000006800F0E3FE00F055FB0125032C08D870
:1002E000002806D10025E84321462A4600F01CF8E4
:1002F0007460284670BDC0460800002082B00948DE
:1003000001680122114301600168114001910199C6
:10031000110742680A434260406808400090009814
:1003200002B0704718100240002805D4032203468B
:1003300093430A4A9A1803E00C220240064BD21853
:100340008007C00E8901C9B28140FF238340106835
:10035000984308431060704714ED00E000E400E0AB
:10036000F0B581B0002846D00446534A13680120F6
:1003700003408B4208D213680126B3430B4313603A
:10038000126832408A4237D1009121688A074B4B6C
:1003900010D54A0706D5072212021B681343474AA5
:1003A0001360464B1A68F0239A43A3681343434AE9
:1003B0001360424BC90722D13F49086801263040EB
:1003C000009A904205D90868B04308600868C007E1
:1003D00012D12078400706D5072000021968814312
:1003E000E068084318601A681007810F3548022931
:1003F00012D2044650E00126304601B0F0BD6168DB
:1004000003290DD01A1F02290FD0012912D1126819
:1004100092030646F0D511E0032926D12A4C3BE091
:100420001A6B92030646E7D508E012689201064669
:10043000E2D503E0126892070646DDD51868032668
:10044000B04308431860FFF71DFF07461C4D1B4BC8
:1004500018680C210140606880008142ACD0FFF731
:1004600011FFC01BA842F2D9C6E70321CB031349F1
:10047000896A0F240C401549095D94021A40240F23
:10048000134D2C5D9A4202D033049A4200E00E488C
:1004900000F004FE4443094B18680006000F0D49A4
:1004A000085CC4400C4804600320FFF707FF0026E7
:1004B000304601B0F0BDC0460020024004100240AA
:1004C0008813000000127A00006CDC02B2120008EF
:1004D000A21200089212000810000020F0B587B0A8
:1004E00004460120002C00D145E204902078C0078A
:1004F000F94E05940CD071680C200140042900D0FD
:1005000090E03068800303D56068002800D120E1C6
:100510002078800721D570680007800F0ED07068A2
:100520000C210140082900D09DE00320C003716820
:1005300001400120C003814200D094E03068800770
:10054000059C03D5E068012800D002E13068F8215D
:1005500088432169C90001433160059C2078000768
:1005600024D42078400737D42078C00600D4D3E0C4
:1005700005984069411D00D1C2E0012800D030E15A
:10058000706B042101437163706B0121014371633E
:10059000FFF778FE0546706B800700D5B4E0FFF7E3
:1005A00071FE411B03200229F5D9E4E1706AE1697B
:1005B000002900D181E0012108437062FFF762FE4B
:1005C0000546706A8007CCD4FFF75CFE401B02280A
:1005D000F7D9032007B0F0BD012003900107F069AF
:1005E0000840029006D1F0690843F061F0690840C4
:1005F000069006980191E14F3868C0054AD40398E7
:100600000402386820433860FFF73CFE054638682E
:1006100020423FD1FFF736FE401B6428F7D9032064
:1006200007B0F0BD71680140082908D10320C0035C
:100630007168014001200004814200D161E76168D6
:1006400001204704002900D117E1052900D12BE141
:10065000012900D12CE1010432688A43326081040F
:100660003068884327E13068059CE168002936D06E
:10067000012108433060FFF705FE0546306880071A
:1006800000D563E7FFF7FEFD401B0228F6D90320E3
:1006900007B0F0BD05988068002800D1B6E00528B5
:1006A00000D1C9E0012800D1CAE0306A039988432B
:1006B0003062306A04218843C5E0012188437062BA
:1006C000FFF7E0FD0546706A800700D449E7FFF7B1
:1006D000D9FD401B0228F6D9032007B0F0BD012147
:1006E00088433060FFF7CEFD05463068800700D4B0
:1006F00033E7FFF7C7FD411B03200229F5D93AE193
:10070000706B042188437063706BF82188430599EE
:100710008969C900014371630598007880060BD58B
:1007200071680C2001400C2939D1706B800303D50E
:100730000598006A01280CD10598446A002C00D164
:10074000E1E070680C210140082905D1012C00D09E
:10075000C4E0049807B0F0BD01200206316804929D
:10076000914331604706FFF78DFD0546022C0BD102
:10077000049C3068384200D1DEE0FFF783FD411B66
:1007800003200229F5D9F6E03068384200D1BAE0FA
:10079000FFF778FD411B03200229F5D9EBE07168D2
:1007A0000140082905D10320C0037168014081423E
:1007B000BBD0706B0599096A002900D1A9E001211D
:1007C0000A04104370634C04FFF75CFD0546706B30
:1007D0002042B1D1FFF756FD411B03200229F6D973
:1007E000C9E0706B042101437163706B0121884380
:1007F0007063FFF747FD0546706B80078CD5FFF7E8
:1008000041FD411B03200229F6D9B4E0306A039967
:1008100088433062306A042188433062584CFFF7C5
:1008200031FD0546306A80071DD5FFF72BFD411BC2
:100830000320A142F6D99EE0306A042101433162CF
:10084000306A0399084330624D4CFFF71BFD0546A3
:10085000306A800707D4FFF715FD401BA042F7D987
:10086000032007B0F0BD02980028059C00D07BE66D
:10087000F06901998843F06176E6010432688A43A1
:1008800032608004316881433160FFF7FBFC05462C
:10089000059C3068384200D13AE6FFF7F3FC411B73
:1008A00003206429F5D966E0810432680A43326086
:1008B0000104306808433060FFF7E4FC0546306807
:1008C000384200D024E6FFF7DDFC401B6428F6D94F
:1008D000032007B0F0BDC046001002400320C20351
:1008E00070680240F16A059CA36A9A42049D0DD18A
:1008F0000F221140236B994208D191040840E16A0C
:100900008842284637D1002007B0F0BD284607B0FE
:10091000F0BD01210A04904370634C04FFF7B2FC60
:100920000546706B204200D106E7FFF7ABFC411B88
:1009300003200229F5D91EE0F06A0F218843059AA9
:10094000116B0143F1627B20C00371688143D06A5F
:100950000843916A01437160306820433060FFF7BB
:1009600091FC044630683842CDD1FFF78BFC011B67
:1009700003200229F6D907B0F0BDC0460070004040
:1009800088130000401E010E01D001207047074966
:10099000074A5060074803680B400321890759182C
:1009A000016000209060072111607047FFFFFF0089
:1009B00010E000E020ED00E0FEE7FEE77047704742
:1009C00080B5FFF763FC80BD704700009AB0012638
:1009D000F104ED4A1068009108431060002008906F
:1009E000EA4A105E069040000390401C3146814068
:1009F0000620105E059040000290401C3446844062
:100A00000C4302200790105E04904500691C30469C
:100A1000884020430421515E01914B005A1C31460D
:100A200091400143DA4F143F3868884338603046BC
:100A3000039A90403246029CA24002433046A840AE
:100A4000104335469D400543386828430397386076
:100A5000069880B232468240059880B23346834081
:100A60001343049880B2324682401A43019880B200
:100A7000334683401343C64A1746103F38689843AD
:100A80003860104613460C380268AA4302604819C1
:100A9000194608390A6882430A60FFF701FC0DAC69
:100AA000201D3021FFF7A6FB089805461690102060
:100AB0001190109607980D902046FFF70FFD002823
:100AC00003D0EFF3108072B6FEE70797009FAE4C9D
:100AD0000C950B950A950720099009A82946FFF760
:100AE0003FFC002803D0EFF3108072B6FEE72068C9
:100AF00038432060B004216801432160B005A1683B
:100B00000143A160F105A34802680A430260F102B3
:100B100042680A4342603103426A0A434262F10674
:100B200002680A430260710342680A434260052278
:100B30001205436A13434362320703681343036099
:100B4000B203436893434360436913434361039F84
:100B5000386830433860079A1068B0431060ED4A37
:100B6000106830431060E9480246083A13688A4C1E
:100B70001C4314600246183A13683343136002465C
:100B8000143A864B136013680B43136003689B078A
:100B90000FD4E14B1C883346A340DE4D02E00468CD
:100BA000A40706D40468E406F9D52C681C432C601D
:100BB000F5E7202303610468A4070FD4D64C2588E9
:100BC0003446AC40D34F02E00568AD0706D4056853
:100BD000ED06F9D53D6825433D60F5E70B2404613A
:100BE000046864060FD4CC4C25883446AC40C94F09
:100BF00002E005686D0606D40568ED06F9D53D6886
:100C000025433D60F5E7C24C146014680C43146042
:100C10000468A4070FD4C04C25883446AC40BD4FAF
:100C200002E00568AD0706D40568ED06F9D53D6814
:100C300025433D60F5E7036103685B060FD4B64BBF
:100C40001C883346A340B34D02E00468640606D412
:100C50000468E406F9D52C681C432C60F5E7AF4B1B
:100C6000136013680B43136001684907AA4B0ED445
:100C70001A8831469140A74C02E00268520706D418
:100C80000268D206F9D522680A432260F5E70168B6
:100C900049060ED41A88314691409E4C02E0026803
:100CA000520606D40268D206F9D522680A432260A9
:100CB000F5E7C0680B28F64D05D09888314681408D
:100CC000286808432860D88831468140286808434E
:100CD000FF214F000AE0988831468140D88832468B
:100CE00082400A43EA4800689043E94D2860642046
:100CF000FFF7B8FA00F056F8044600F011F9C119F0
:100D000089B2274AE34B914209D258883146814043
:100D10001888324682400A432868904316E0B84259
:100D200008DD588831468140D94D286888432860BD
:100D3000188807E0188831468140D54D28688843D7
:100D40002860588831468140286808432860E019A7
:100D500080B213498842BED3B81C844207DAD888CF
:100D600031468140286888432860988806E0988842
:100D700031468140286888432860D88831468140C0
:100D800028680843B2E7C046141002400000002063
:100D9000140800480004004804023F11D200020079
:100DA000FD030000F0B5B8480346143BB74919608D
:100DB00001214C031A6822431A6002689207B44A60
:100DC0000ED4B44E37880E46BE4002E00768BF0717
:100DD00006D40768FF06F9D5176837431760F5E7AB
:100DE00028260661066876060ED4AA4E37880E4677
:100DF000BE4002E007687F0606D40768FF06F9D503
:100E0000176837431760F5E7A34D1D601E6826433A
:100E10001E60066876070ED49E4E35880E46AE409C
:100E200002E005686D0706D40568ED06F9D515687A
:100E300035431560F5E705686D060ED4954D2D8890
:100E40000E46AE4002E005686D0606D40568ED0664
:100E5000F9D5156835431560F5E7C6688B4D1D60FB
:100E60001D6825431D600568AD070ED4894D2F8888
:100E70000D46BD4002E00768BF0706D40768FF06BD
:100E8000F9D517682F431760F5E72925056105682F
:100E90006D060ED47F4D2F880D46BD4002E00768D9
:100EA0007F0606D40768FF06F9D517682F43176039
:100EB000F5E7794D1D601D6825431D6003685B07DC
:100EC0000ED4744B1C880B46A34002E004686407F0
:100ED00006D40468E406F9D514681C431460F5E7E9
:100EE00003685B060DD46B4B1B88994002E00368D6
:100EF0005B0606D40368DB06F9D513680B43136061
:100F0000F5E7C0680002304300B2F0BD1858004059
:100F1000D20001001408004800000020D2040100A3
:100F2000F0B559480346143B5849196001214C0358
:100F30001A6822431A6002689207554A0ED4554E29
:100F400037880E46BE4002E00768BF0706D4076830
:100F5000FF06F9D5176837431760F5E72A260661BB
:100F6000066876060ED44B4E37880E46BE4002E029
:100F700007687F0606D40768FF06F9D51768374368
:100F80001760F5E7444D1D601E6826431E60066825
:100F900076070ED43F4E35880E46AE4002E0056817
:100FA0006D0706D40568ED06F9D51568354315605B
:100FB000F5E705686D060ED4364D2D880E46AE4019
:100FC00002E005686D0606D40568ED06F9D51568DA
:100FD00035431560F5E7C6682C4D1D601D68254337
:100FE0001D600568AD070ED42A4D2F880D46BD4003
:100FF00002E00768BF0706D40768FF06F9D517683F
:101000002F431760F5E72B25056105686D060ED4A3
:10101000204D2F880D46BD4002E007687F0606D4AC
:101020000768FF06F9D517682F431760F5E71A4DD3
:101030001D601D6825431D6003685B070ED4154BBA
:101040001C880B46A34002E00468640706D40468C9
:10105000E406F9D514681C431460F5E703685B06E1
:101060000DD40C4B1B88994002E003685B0606D444
:101070000368DB06F9D513680B431360F5E7C06816
:101080000002304300B2F0BD18580040D200010009
:101090001408004800000020D204010043088B42DD
:1010A0001AD3002203098B4279D3030A8B425ED301
:1010B000030B8B4242D3030C8B4227D30902FF223E
:1010C00012BA030C8B4202D31212090203D0030B93
:1010D0008B4233D31AE0D3E0411A8041401C704761
:1010E00003460B4371D443088B42F5D30022030916
:1010F0008B4254D3030A8B4239D3030B8B421DD34B
:10110000030C8B4202D394466EE0090AC30B8B4258
:1011100001D3CB03C01A5241830B8B4201D38B0303
:10112000C01A5241430B8B4201D34B03C01A5241A8
:10113000030B8B4201D30B03C01A5241C30A8B42EB
:1011400001D3CB02C01A5241830A8B4201D38B02D6
:10115000C01A5241430A8B4201D34B02C01A52417A
:10116000030A8B4201D30B02C01A5241CDD2C309EC
:101170008B4201D3CB01C01A524183098B4201D368
:101180008B01C01A524143098B4201D34B01C01A53
:10119000524103098B4201D30B01C01A5241C308CB
:1011A0008B4201D3CB00C01A524183088B4201D33A
:1011B0008B00C01A524143088B4201D34B00C01A26
:1011C0005241411A524110007047CA0F00D04942A3
:1011D000031000D34042534000229C4603098B4237
:1011E0002DD3030A8B4212D38901FC2212BA030ABF
:1011F0008B420CD3890192118B4208D38901921141
:101200008B4204D3890137D0921100E08909C309C8
:101210008B4201D3CB01C01A524183098B4201D3C7
:101220008B01C01A524143098B4201D34B01C01AB2
:10123000524103098B4201D30B01C01A5241C3082A
:101240008B4201D3CB00C01A524183088B4201D399
:101250008B00C01A5241D9D243088B4201D34B00B4
:10126000C01A5241411A00D201465241104663460B
:101270005B1000D34042704763465B1000D340428E
:1012800001B50021004201D0C9430846C046C0460E
:1012900002BD000000000000000001020304060778
:1012A000080902030405060708090A0B0C0D0E0FB6
:1012B00010100102030405060708090A0B0C0D0EA5
:1012C0000F100000E81200080000002018000000C5
:1012D0001C01000800130008180000206806000028
:1012E0003C0100080000000006000700080009009B
:1012F000010000000400000000127A00000000005D
:04000005080000C12E
:00000001FF
